:040000000DEF00F010
:04000800D4EF12F02F
:06001800FF0054EF13F09D
:0720000000000404000100D0
:10200800BCEC13F0F00E046E270E056E000E066E83
:10201800F1EC13F0120E046E250E056E000E066E1E
:10202800EAEC13F0000E5AEC11F0D28EBD98000EB7
:10203800AFEC13F0A30E0D6E570E0C6E020EE82EC9
:10204800FED70C2EFCD70D2EFAD700D0000E1A6E34
:10205800000E196E000EAFEC13F0194A1A2A1ABEB8
:102068003DEF10F0040E1A5CD8A03DEF10F03FEFE2
:1020780010F02EEF10F0010EAFEC13F03E0EAFECA7
:1020880013F0110E0D6E3C0E0C6ECB0EE82EFED723
:102098000C2EFCD70D2EFAD700F0BD88000E166E58
:1020A800000E186E7F0E18645CEF10F05EEF10F0F3
:1020B80060EF10F0DDEF10F0000E156E000E176ED9
:1020C800070E17646AEF10F06CEF10F06EEF10F067
:1020D800C3EF10F018C004F0056A000E076E080E72
:1020E800066EC9EC11F01650980D6F00CCFF0CF07D
:1020F8006F00D0FF0DF01750130DF3500C26F4505D
:102108000D2204500C2605500D22030E0C240E6ED1
:10211800000E0D200F6E18C00CF0070E0C16010EE5
:102128000D6E0C2A9AEF10F0D8900D360C2E98EF01
:1021380010F00D50126E400E0E24D96E170E0F209F
:10214800DA6EDF501214146E1450D8B4AEEF10F0DB
:10215800B0EF10F0C0EF10F017C00CF0010E0D6ECC
:102168000C2AB9EF10F0D8900D360C2EB7EF10F0FE
:102178000D50136E13501512172A64EF10F01650F5
:10218800800D6F00CCFF0CF06F00D0FF0DF01850E1
:102198000C24106E000E0D20116E000E1024D96E46
:1021A8001C0E1120DA6E600057F0DFFF182A56EF78
:1021B80010F0162A070E1664E4EF10F0E6EF10F0A0
:1021C80054EF10F02A4A2B2A2B5009E1790E2A5C89
:1021D800D8A0F1EF10F0F3EF10F019EF11F0000EA6
:1021E8001A6E000E196E400E1924D96E170E1A2099
:1021F800DA6E000EDF6E194A1A2A1ABE0DEF11F0B8
:10220800C00E195C040E1A58D8A00DEF11F00FEF8C
:1022180011F0F7EF10F0000E2B6E000E2A6E000E74
:10222800336E000E326E000E2C6E010EAFEC13F002
:10223800080EAFEC13F0020E0D6EA00E0C6E920E8F
:10224800E82EFED70C2EFCD70D2EFAD700D0060E9E
:10225800AFEC13F0000E1A6E000E196E000E192462
:10226800D96E1C0E1A20DA6EDF50AFEC13F0194A43
:102278001A2A1ABE47EF11F0040E1A5CD8A047EFCD
:1022880011F049EF11F032EF11F0BD98090E0D6E03
:102298001E0E0C6EE40EE82EFED70C2EFCD70D2E6B
:1022A800FAD700D051EF10F00DEF00F0056E3D01A8
:1022B80014BF61EF11F063EF11F0C8EF11F0055092
:1022C800050D010EF324F66E200EF420F76EF86A61
:1022D800000EF82208006F00D7FF14FD0550050D09
:1022E800010EF326000EF422010EF324F66E200EE2
:1022F800F420F76EF86A000EF82208006F00D7FF86
:1023080015FD0550050D020EF326000EF422010EF0
:10231800F324F66E200EF420F76EF86A000EF82209
:102328000800F5500309166F000E1C6F0550050DC7
:10233800030EF326000EF422010EF324F66E200E8F
:10234800F420F76EF86A000EF82208006F00D7FF35
:1023580019FD0550050D040EF326000EF422010E9A
:10236800F324F66E200EF420F76EF86A000EF822B9
:1023780008006F00D4FF04F0043A0446C45004185F
:10238800DF0B0418C46E148F1200000E096E07BE0E
:10239800D2EF11F0D0EF11F0D8EF11F0066C071E54
:1023A800D8B0072A010E096E05BEDFEF11F0DDEF88
:1023B80011F0E5EF11F0046C051ED8B0052A010EE6
:1023C800091A000E0B6E000E0A6E06500710D8B4DC
:1023D800F0EF11F0F2EF11F01AEF12F0010E086EA3
:1023E800FAEF11F0D89006360736082A07AEFFEF45
:1023F80011F001EF12F0F6EF11F0D8900A360B3613
:102408000650045C07500558D8A00DEF12F00FEFE6
:1024180012F014EF12F00650045E0750055A0A80B5
:10242800D89007320632082E01EF12F00950D8B4BE
:1024380020EF12F022EF12F026EF12F00A6C0B1EBA
:10244800D8B00B2A0AC004F00BC005F01200000E29
:10245800BE6E000EBD6E000EBA6E000EBF6E000E90
:10246800BB6E000EBC6E070EC66EC768C268C36836
:102478007F0EC46EEF0EC56EE70E3A01706F0E0E3A
:10248800606F5069070E806F90694069000E716F28
:10249800000E916F000E816F000E516F000E416F9C
:1024A800000E616F000E5A6F000E5B6F000E6A6FB0
:1024B800000E6B6F000E7A6F000E7B6F000E826F3E
:1024C800000E926F000E426F000E526F000E626F88
:1024D800000E726F43695369000E636F000E736FCD
:1024E800070E836F936944695469646974690F0EB0
:1024F800846F9469150EDE6F1B0EE06F100EE56F8A
:10250800130E176F140EDF6F1200FBEC13F02D6E15
:102518003901A299030E2C6094EF12F096EF12F095
:10252800B3EF12F02F0E2C24D96EDA6A000EDA22DD
:102538002D50DE18D8A4A3EF12F0A5EF12F0A8EFE3
:1025480012F02C2AD3EF12F02C50D8B4AEEF12F0C0
:10255800B0EF12F0D3EF12F02C06D3EF12F0400ECA
:102568003224D96E170E3320DA6E6000B7F0DFFF21
:10257800324A332AC00E325C040E3358D8A0C7EF53
:1025880012F0C9EF12F0D3EF12F0000E336E030E03
:10259800326E000E2C6E000E2B6E000E2A6E12008C
:1025A8006F00E8FF02F06F00ECFF03F0390192AD15
:1025B800E0EF12F0E2EF12F0F8EF12F0A2ADE7EF61
:1025C80012F0E9EF12F0F8EF12F002D8F6EF12F07D
:1025D8000500FA6E2750FD6E2850FE6E2950FF6EDA
:1025E800FA50120013EF13F092A9FDEF12F0FFEF6B
:1025F80012F013EF13F0A2A904EF13F006EF13F093
:1026080013EF13F002D813EF13F00500FA6E2450FD
:10261800FD6E2550FE6E2650FF6EFA5012006000C7
:102628000FF0FBFF60000BF0FAFF1100000E3D01F8
:10263800EC6F000EED6F000EEE6F000EEF6F000EE8
:10264800F06F000EF16FA00EF26F800EF36F000EA8
:10265800F46F8A0EF56F000EF66F000EF76F000E1E
:10266800F86F000EF96F000EFA6F000E046E000E80
:10267800056E000E066EDCEC13F0000E046E000E04
:10268800056E000E066ED5EC13F0000E046E000EFB
:10269800056E000E066EE3EC13F0000E2E6E1200AF
:1026A800FC0EF66E270EF76E000EF86E00EE2FF099
:1026B80010EE05F009006F00D7FFEEFFE550E1507E
:1026C800F9E105EE40F312EEC0F0EE6AE550E15094
:1026D800FCE1E250FAE12E6A2D6A2C6A2B6A2A6A1A
:1026E800080ED56E000ED66E000ED76E000104EFF0
:1026F80010F0000E3D01146F040E156F040E166FD6
:10270800000E1C6F000E196FC48A3901928D9289D0
:10271800060E046E280E056E000E066EF1EC13F020
:10272800080E046E280E056E000E066EEAEC13F015
:102738001200000E3901C06F000EC16F000EC26F8B
:10274800000EC36F000EC46F000EC56F000EC66F7B
:10275800000EC76F1200046E3901A3A9B6EF13F07B
:10276800B8EF13F0B0EF13F0600013F0EAFD1200B9
:1027780001EC14F09DEC13F02BEC12F0C9EC13F003
:102788001AEC13F07DEC13F01200600E3901D96FCA
:10279800000EDB6F000EDD6F080EDF6F000EDE6FC0
:1027A800120004C01EF005C01FF006C020F0120081
:1027B80004C021F005C022F006C023F0120004C0B6
:1027C8001BF005C01CF006C01DF0120004C024F068
:1027D80005C025F006C026F0120004C027F005C089
:1027E80028F006C029F012003901A29D12003D010F
:0927F80010511200B00F13030090
:08280200D29A1200120012002C
:020000040020DA
:10000000FF0FFF0FFF0FFF0FFF0FFF0FFF0FFF0F80
:020000040030CA
:0A0000008CFFF7FF9FFFFFFFFFFFDB
:00000001FF
