:0400000080311B2808
:100008007E1480310B1F09280A2819282100911D08
:100018000E280F2819282000911D132814281928A4
:100028007A088A0079080A0080317E100900803138
:100038001D28FB01FC017E1020008031A728F40058
:100048002400951A2828292871287408F100F2013B
:10005800F135F20DF135F20D7230710784008130FF
:10006800723D8500000894007408F100F201F13532
:10007800F20DF135F20D7130710784008130723D57
:1000880085000008950096017408F100F201F13529
:10009800F20DF135F20D7330710784008130723D35
:1000A8008500000892007408F100F201F135F20DA4
:1000B800F135F20D7430710784008130723D85008E
:1000C8000008F300F30EF30DF30D21000D0873067D
:1000D800BF3973068D0024009516080022008C0194
:1000E8008D018E01263021008C0070308D00FF308C
:1000F8008E00FF3023008E008D0136308C002400E6
:100108008D018C018E0125008C018D018E01373007
:1001180026008C00F0308D00FF308E003F30270025
:100128008C00F0308D00FF308E000D303C00A400B4
:100138000E30A00019303D00940014309F000C30A0
:100148003C00A10008008131112180313730F100D5
:100158000130F2008131672180318B170B17003095
:100168008031232080310930F6001E30F500E4305C
:10017800890BBC28F50BBC28F60BBC2800320310F1
:1001880022000C1C03140318CA28CD2822000C14C2
:10019800CF2822000C10B72880311B2808302300F4
:1001A8009F0090309D0024309E0044309B009C01AD
:1001B8000030F1000030F20081316C2180310030D4
:1001C800F1000030F20081315B2180310030F10014
:1001D8000030F200813161218031FB0108000E30CE
:1001E8003C00A0000C30A10018303D009E001930E2
:1001F80094004030240094000530950092012100BD
:1002080091152430F1000130F200813167218031ED
:1002180021000D17240095120800813153218131E6
:100228008031F320813180317220813181314A213E
:1002380081318131752181318031D22081310800AD
:100248002000911D28292929362979087A040319BB
:100258002E292F2934297A088A0079080A00813141
:10026800200091110800031022000C1C031403182D
:100278003E29412922000C14432922000C10813107
:1002880079218131F0007008FC00080060303200EC
:1002980099009B019D0107309F009E0108003200D4
:1002A8009101920193019401950196010800720849
:1002B8002000A3007108A200080072082000A10015
:1002C8007108A00008007208FA007108F900080017
:1002D8007208F8007108F70008000534403400344B
:1002E8000134163021009700080024001108080086
:020000040001F9
:08000000FF3FFF3FFF3FFF3F00
:08000E008C3F323FFF1FFF3F52
:00000001FF
